{"abi":[{"type":"constructor","inputs":[{"name":"manager","type":"address","internalType":"contract IPoolManager"},{"name":"delay","type":"uint256","internalType":"uint256"},{"name":"grace","type":"uint256","internalType":"uint256"}],"stateMutability":"nonpayable"},{"type":"receive","stateMutability":"payable"},{"type":"function","name":"afterAddLiquidity","inputs":[{"name":"sender","type":"address","internalType":"address"},{"name":"key","type":"tuple","internalType":"struct PoolKey","components":[{"name":"currency0","type":"address","internalType":"Currency"},{"name":"currency1","type":"address","internalType":"Currency"},{"name":"fee","type":"uint24","internalType":"uint24"},{"name":"tickSpacing","type":"int24","internalType":"int24"},{"name":"hooks","type":"address","internalType":"contract IHooks"}]},{"name":"params","type":"tuple","internalType":"struct IPoolManager.ModifyLiquidityParams","components":[{"name":"tickLower","type":"int24","internalType":"int24"},{"name":"tickUpper","type":"int24","internalType":"int24"},{"name":"liquidityDelta","type":"int256","internalType":"int256"},{"name":"salt","type":"bytes32","internalType":"bytes32"}]},{"name":"delta","type":"int256","internalType":"BalanceDelta"},{"name":"feesAccrued","type":"int256","internalType":"BalanceDelta"},{"name":"hookData","type":"bytes","internalType":"bytes"}],"outputs":[{"name":"","type":"bytes4","internalType":"bytes4"},{"name":"","type":"int256","internalType":"BalanceDelta"}],"stateMutability":"nonpayable"},{"type":"function","name":"afterDonate","inputs":[{"name":"sender","type":"address","internalType":"address"},{"name":"key","type":"tuple","internalType":"struct PoolKey","components":[{"name":"currency0","type":"address","internalType":"Currency"},{"name":"currency1","type":"address","internalType":"Currency"},{"name":"fee","type":"uint24","internalType":"uint24"},{"name":"tickSpacing","type":"int24","internalType":"int24"},{"name":"hooks","type":"address","internalType":"contract IHooks"}]},{"name":"amount0","type":"uint256","internalType":"uint256"},{"name":"amount1","type":"uint256","internalType":"uint256"},{"name":"hookData","type":"bytes","internalType":"bytes"}],"outputs":[{"name":"","type":"bytes4","internalType":"bytes4"}],"stateMutability":"nonpayable"},{"type":"function","name":"afterInitialize","inputs":[{"name":"sender","type":"address","internalType":"address"},{"name":"key","type":"tuple","internalType":"struct PoolKey","components":[{"name":"currency0","type":"address","internalType":"Currency"},{"name":"currency1","type":"address","internalType":"Currency"},{"name":"fee","type":"uint24","internalType":"uint24"},{"name":"tickSpacing","type":"int24","internalType":"int24"},{"name":"hooks","type":"address","internalType":"contract IHooks"}]},{"name":"sqrtPriceX96","type":"uint160","internalType":"uint160"},{"name":"tick","type":"int24","internalType":"int24"}],"outputs":[{"name":"","type":"bytes4","internalType":"bytes4"}],"stateMutability":"nonpayable"},{"type":"function","name":"afterRemoveLiquidity","inputs":[{"name":"sender","type":"address","internalType":"address"},{"name":"key","type":"tuple","internalType":"struct PoolKey","components":[{"name":"currency0","type":"address","internalType":"Currency"},{"name":"currency1","type":"address","internalType":"Currency"},{"name":"fee","type":"uint24","internalType":"uint24"},{"name":"tickSpacing","type":"int24","internalType":"int24"},{"name":"hooks","type":"address","internalType":"contract IHooks"}]},{"name":"params","type":"tuple","internalType":"struct IPoolManager.ModifyLiquidityParams","components":[{"name":"tickLower","type":"int24","internalType":"int24"},{"name":"tickUpper","type":"int24","internalType":"int24"},{"name":"liquidityDelta","type":"int256","internalType":"int256"},{"name":"salt","type":"bytes32","internalType":"bytes32"}]},{"name":"delta","type":"int256","internalType":"BalanceDelta"},{"name":"feesAccrued","type":"int256","internalType":"BalanceDelta"},{"name":"hookData","type":"bytes","internalType":"bytes"}],"outputs":[{"name":"","type":"bytes4","internalType":"bytes4"},{"name":"","type":"int256","internalType":"BalanceDelta"}],"stateMutability":"nonpayable"},{"type":"function","name":"afterSwap","inputs":[{"name":"sender","type":"address","internalType":"address"},{"name":"key","type":"tuple","internalType":"struct PoolKey","components":[{"name":"currency0","type":"address","internalType":"Currency"},{"name":"currency1","type":"address","internalType":"Currency"},{"name":"fee","type":"uint24","internalType":"uint24"},{"name":"tickSpacing","type":"int24","internalType":"int24"},{"name":"hooks","type":"address","internalType":"contract IHooks"}]},{"name":"params","type":"tuple","internalType":"struct IPoolManager.SwapParams","components":[{"name":"zeroForOne","type":"bool","internalType":"bool"},{"name":"amountSpecified","type":"int256","internalType":"int256"},{"name":"sqrtPriceLimitX96","type":"uint160","internalType":"uint160"}]},{"name":"delta","type":"int256","internalType":"BalanceDelta"},{"name":"hookData","type":"bytes","internalType":"bytes"}],"outputs":[{"name":"","type":"bytes4","internalType":"bytes4"},{"name":"","type":"int128","internalType":"int128"}],"stateMutability":"nonpayable"},{"type":"function","name":"beforeAddLiquidity","inputs":[{"name":"sender","type":"address","internalType":"address"},{"name":"key","type":"tuple","internalType":"struct PoolKey","components":[{"name":"currency0","type":"address","internalType":"Currency"},{"name":"currency1","type":"address","internalType":"Currency"},{"name":"fee","type":"uint24","internalType":"uint24"},{"name":"tickSpacing","type":"int24","internalType":"int24"},{"name":"hooks","type":"address","internalType":"contract IHooks"}]},{"name":"params","type":"tuple","internalType":"struct IPoolManager.ModifyLiquidityParams","components":[{"name":"tickLower","type":"int24","internalType":"int24"},{"name":"tickUpper","type":"int24","internalType":"int24"},{"name":"liquidityDelta","type":"int256","internalType":"int256"},{"name":"salt","type":"bytes32","internalType":"bytes32"}]},{"name":"hookData","type":"bytes","internalType":"bytes"}],"outputs":[{"name":"","type":"bytes4","internalType":"bytes4"}],"stateMutability":"nonpayable"},{"type":"function","name":"beforeDonate","inputs":[{"name":"sender","type":"address","internalType":"address"},{"name":"key","type":"tuple","internalType":"struct PoolKey","components":[{"name":"currency0","type":"address","internalType":"Currency"},{"name":"currency1","type":"address","internalType":"Currency"},{"name":"fee","type":"uint24","internalType":"uint24"},{"name":"tickSpacing","type":"int24","internalType":"int24"},{"name":"hooks","type":"address","internalType":"contract IHooks"}]},{"name":"amount0","type":"uint256","internalType":"uint256"},{"name":"amount1","type":"uint256","internalType":"uint256"},{"name":"hookData","type":"bytes","internalType":"bytes"}],"outputs":[{"name":"","type":"bytes4","internalType":"bytes4"}],"stateMutability":"nonpayable"},{"type":"function","name":"beforeInitialize","inputs":[{"name":"sender","type":"address","internalType":"address"},{"name":"key","type":"tuple","internalType":"struct PoolKey","components":[{"name":"currency0","type":"address","internalType":"Currency"},{"name":"currency1","type":"address","internalType":"Currency"},{"name":"fee","type":"uint24","internalType":"uint24"},{"name":"tickSpacing","type":"int24","internalType":"int24"},{"name":"hooks","type":"address","internalType":"contract IHooks"}]},{"name":"sqrtPriceX96","type":"uint160","internalType":"uint160"}],"outputs":[{"name":"","type":"bytes4","internalType":"bytes4"}],"stateMutability":"nonpayable"},{"type":"function","name":"beforeRemoveLiquidity","inputs":[{"name":"sender","type":"address","internalType":"address"},{"name":"key","type":"tuple","internalType":"struct PoolKey","components":[{"name":"currency0","type":"address","internalType":"Currency"},{"name":"currency1","type":"address","internalType":"Currency"},{"name":"fee","type":"uint24","internalType":"uint24"},{"name":"tickSpacing","type":"int24","internalType":"int24"},{"name":"hooks","type":"address","internalType":"contract IHooks"}]},{"name":"params","type":"tuple","internalType":"struct IPoolManager.ModifyLiquidityParams","components":[{"name":"tickLower","type":"int24","internalType":"int24"},{"name":"tickUpper","type":"int24","internalType":"int24"},{"name":"liquidityDelta","type":"int256","internalType":"int256"},{"name":"salt","type":"bytes32","internalType":"bytes32"}]},{"name":"hookData","type":"bytes","internalType":"bytes"}],"outputs":[{"name":"","type":"bytes4","internalType":"bytes4"}],"stateMutability":"nonpayable"},{"type":"function","name":"beforeSwap","inputs":[{"name":"sender","type":"address","internalType":"address"},{"name":"key","type":"tuple","internalType":"struct PoolKey","components":[{"name":"currency0","type":"address","internalType":"Currency"},{"name":"currency1","type":"address","internalType":"Currency"},{"name":"fee","type":"uint24","internalType":"uint24"},{"name":"tickSpacing","type":"int24","internalType":"int24"},{"name":"hooks","type":"address","internalType":"contract IHooks"}]},{"name":"params","type":"tuple","internalType":"struct IPoolManager.SwapParams","components":[{"name":"zeroForOne","type":"bool","internalType":"bool"},{"name":"amountSpecified","type":"int256","internalType":"int256"},{"name":"sqrtPriceLimitX96","type":"uint160","internalType":"uint160"}]},{"name":"hookData","type":"bytes","internalType":"bytes"}],"outputs":[{"name":"","type":"bytes4","internalType":"bytes4"},{"name":"","type":"int256","internalType":"BeforeSwapDelta"},{"name":"","type":"uint24","internalType":"uint24"}],"stateMutability":"nonpayable"},{"type":"function","name":"cancelIntent","inputs":[{"name":"intentId","type":"uint256","internalType":"uint256"}],"outputs":[],"stateMutability":"nonpayable"},{"type":"function","name":"delay_block","inputs":[],"outputs":[{"name":"","type":"uint256","internalType":"uint256"}],"stateMutability":"view"},{"type":"function","name":"executeIntent","inputs":[{"name":"intentId","type":"uint256","internalType":"uint256"}],"outputs":[],"stateMutability":"nonpayable"},{"type":"function","name":"getHookPermissions","inputs":[],"outputs":[{"name":"","type":"tuple","internalType":"struct Hooks.Permissions","components":[{"name":"beforeInitialize","type":"bool","internalType":"bool"},{"name":"afterInitialize","type":"bool","internalType":"bool"},{"name":"beforeAddLiquidity","type":"bool","internalType":"bool"},{"name":"afterAddLiquidity","type":"bool","internalType":"bool"},{"name":"beforeRemoveLiquidity","type":"bool","internalType":"bool"},{"name":"afterRemoveLiquidity","type":"bool","internalType":"bool"},{"name":"beforeSwap","type":"bool","internalType":"bool"},{"name":"afterSwap","type":"bool","internalType":"bool"},{"name":"beforeDonate","type":"bool","internalType":"bool"},{"name":"afterDonate","type":"bool","internalType":"bool"},{"name":"beforeSwapReturnDelta","type":"bool","internalType":"bool"},{"name":"afterSwapReturnDelta","type":"bool","internalType":"bool"},{"name":"afterAddLiquidityReturnDelta","type":"bool","internalType":"bool"},{"name":"afterRemoveLiquidityReturnDelta","type":"bool","internalType":"bool"}]}],"stateMutability":"pure"},{"type":"function","name":"gracePeriod","inputs":[],"outputs":[{"name":"","type":"uint256","internalType":"uint256"}],"stateMutability":"view"},{"type":"function","name":"intent","inputs":[{"name":"","type":"uint256","internalType":"uint256"}],"outputs":[{"name":"lp","type":"address","internalType":"address"},{"name":"poolKey","type":"tuple","internalType":"struct PoolKey","components":[{"name":"currency0","type":"address","internalType":"Currency"},{"name":"currency1","type":"address","internalType":"Currency"},{"name":"fee","type":"uint24","internalType":"uint24"},{"name":"tickSpacing","type":"int24","internalType":"int24"},{"name":"hooks","type":"address","internalType":"contract IHooks"}]},{"name":"action","type":"uint8","internalType":"enum LPPrivacy.actionType"},{"name":"tickLower","type":"int24","internalType":"int24"},{"name":"tickUpper","type":"int24","internalType":"int24"},{"name":"liquidityDelta","type":"int128","internalType":"int128"},{"name":"queueBlock","type":"uint256","internalType":"uint256"},{"name":"executeAfterBlock","type":"uint256","internalType":"uint256"},{"name":"expiryBlock","type":"uint256","internalType":"uint256"},{"name":"isCancelled","type":"bool","internalType":"bool"},{"name":"isExecuted","type":"bool","internalType":"bool"}],"stateMutability":"view"},{"type":"function","name":"poolManager","inputs":[],"outputs":[{"name":"","type":"address","internalType":"contract IPoolManager"}],"stateMutability":"view"},{"type":"function","name":"queueIntentFee","inputs":[{"name":"fees","type":"uint256","internalType":"uint256"},{"name":"intentId","type":"uint256","internalType":"uint256"}],"outputs":[],"stateMutability":"payable"},{"type":"function","name":"refundAfterExpiry","inputs":[{"name":"intentId","type":"uint256","internalType":"uint256"}],"outputs":[],"stateMutability":"nonpayable"},{"type":"function","name":"withdraw","inputs":[{"name":"amount","type":"uint256","internalType":"uint256"}],"outputs":[],"stateMutability":"nonpayable"},{"type":"event","name":"executedIntent","inputs":[{"name":"","type":"uint256","indexed":false,"internalType":"uint256"}],"anonymous":false},{"type":"event","name":"queuedIntent","inputs":[{"name":"","type":"uint256","indexed":false,"internalType":"uint256"}],"anonymous":false}],"bytecode":{"object":"0x60806040525f600755348015610013575f5ffd5b506040516142d83803806142d88339818101604052810190610035919061021e565b5f73ffffffffffffffffffffffffffffffffffffffff168373ffffffffffffffffffffffffffffffffffffffff16036100a3576040517f08c379a000000000000000000000000000000000000000000000000000000000815260040161009a906102c8565b60405180910390fd5b5f82116100e5576040517f08c379a00000000000000000000000000000000000000000000000000000000081526004016100dc90610330565b60405180910390fd5b5f8111610127576040517f08c379a000000000000000000000000000000000000000000000000000000000815260040161011e90610398565b60405180910390fd5b825f5f6101000a81548173ffffffffffffffffffffffffffffffffffffffff021916908373ffffffffffffffffffffffffffffffffffffffff16021790555081600181905550806002819055505050506103b6565b5f5ffd5b5f73ffffffffffffffffffffffffffffffffffffffff82169050919050565b5f6101a982610180565b9050919050565b5f6101ba8261019f565b9050919050565b6101ca816101b0565b81146101d4575f5ffd5b50565b5f815190506101e5816101c1565b92915050565b5f819050919050565b6101fd816101eb565b8114610207575f5ffd5b50565b5f81519050610218816101f4565b92915050565b5f5f5f606084860312156102355761023461017c565b5b5f610242868287016101d7565b93505060206102538682870161020a565b92505060406102648682870161020a565b9150509250925092565b5f82825260208201905092915050565b7f426164206d616e616765720000000000000000000000000000000000000000005f82015250565b5f6102b2600b8361026e565b91506102bd8261027e565b602082019050919050565b5f6020820190508181035f8301526102df816102a6565b9050919050565b7f4261642064656c617900000000000000000000000000000000000000000000005f82015250565b5f61031a60098361026e565b9150610325826102e6565b602082019050919050565b5f6020820190508181035f8301526103478161030e565b9050919050565b7f42616420677261636520706572696f64000000000000000000000000000000005f82015250565b5f61038260108361026e565b915061038d8261034e565b602082019050919050565b5f6020820190508181035f8301526103af81610376565b9050919050565b613f15806103c35f395ff3fe608060405260043610610122575f3560e01c8063a06db7dc1161009f578063cd9d6aee11610063578063cd9d6aee14610424578063cf518ad91461044c578063dc4c90d314610492578063dc98354e146104bc578063e1b4af69146104f857610129565b8063a06db7dc1461032f578063a0a31aac14610359578063b47b2fb114610381578063b6a8b0fa146103be578063c4e833ce146103fa57610129565b80634da0a78c116100e65780634da0a78c1461021f578063575e24b41461023b5780636c2bbe7e146102795780636fe7e6eb146102b65780639f063efc146102f257610129565b8063053117191461012d57806321d0ee7014610155578063259982e5146101915780632e1a7d4d146101cd57806344bb65b8146101f557610129565b3661012957005b5f5ffd5b348015610138575f5ffd5b50610153600480360381019061014e9190612943565b610534565b005b348015610160575f5ffd5b5061017b60048036038101906101769190612a69565b61081b565b6040516101889190612b29565b60405180910390f35b34801561019c575f5ffd5b506101b760048036038101906101b29190612a69565b610ced565b6040516101c49190612b29565b60405180910390f35b3480156101d8575f5ffd5b506101f360048036038101906101ee9190612943565b61124c565b005b348015610200575f5ffd5b50610209611407565b6040516102169190612b51565b60405180910390f35b61023960048036038101906102349190612b6a565b61140d565b005b348015610246575f5ffd5b50610261600480360381019061025c9190612bc6565b6114e2565b60405161027093929190612cab565b60405180910390f35b348015610284575f5ffd5b5061029f600480360381019061029a9190612d0a565b611500565b6040516102ad929190612dc7565b60405180910390f35b3480156102c1575f5ffd5b506102dc60048036038101906102d79190612e4e565b611940565b6040516102e99190612b29565b60405180910390f35b3480156102fd575f5ffd5b5061031860048036038101906103139190612d0a565b611953565b604051610326929190612dc7565b60405180910390f35b34801561033a575f5ffd5b50610343611d93565b6040516103509190612b51565b60405180910390f35b348015610364575f5ffd5b5061037f600480360381019061037a9190612943565b611d99565b005b34801561038c575f5ffd5b506103a760048036038101906103a29190612eb3565b612023565b6040516103b5929190612f67565b60405180910390f35b3480156103c9575f5ffd5b506103e460048036038101906103df9190612f8e565b61203d565b6040516103f19190612b29565b60405180910390f35b348015610405575f5ffd5b5061040e612052565b60405161041b919061315e565b60405180910390f35b34801561042f575f5ffd5b5061044a60048036038101906104459190612943565b6120dd565b005b348015610457575f5ffd5b50610472600480360381019061046d9190612943565b6124ed565b6040516104899b9a9998979695949392919061330e565b60405180910390f35b34801561049d575f5ffd5b506104a66126f6565b6040516104b391906133db565b60405180910390f35b3480156104c7575f5ffd5b506104e260048036038101906104dd91906133f4565b61271a565b6040516104ef9190612b29565b60405180910390f35b348015610503575f5ffd5b5061051e60048036038101906105199190612f8e565b61272c565b60405161052b9190612b29565b60405180910390f35b60035f9054906101000a900460ff1615610583576040517f08c379a000000000000000000000000000000000000000000000000000000000815260040161057a9061349e565b60405180910390fd5b600160035f6101000a81548160ff0219169083151502179055508060075481106105e2576040517f08c379a00000000000000000000000000000000000000000000000000000000081526004016105d990613506565b60405180910390fd5b5f60045f8481526020019081526020015f2090508060070154431161063c576040517f08c379a00000000000000000000000000000000000000000000000000000000081526004016106339061356e565b60405180910390fd5b8060080160019054906101000a900460ff161561068e576040517f08c379a0000000000000000000000000000000000000000000000000000000008152600401610685906135d6565b60405180910390fd5b806008015f9054906101000a900460ff16156106df576040517f08c379a00000000000000000000000000000000000000000000000000000000081526004016106d69061363e565b60405180910390fd5b5f60055f8581526020019081526020015f205490505f81116106ff575f5ffd5b5f60055f8681526020019081526020015f20819055506001826008015f6101000a81548160ff0219169083151502179055505f825f015f9054906101000a900473ffffffffffffffffffffffffffffffffffffffff1673ffffffffffffffffffffffffffffffffffffffff168260405161077890613689565b5f6040518083038185875af1925050503d805f81146107b2576040519150601f19603f3d011682016040523d82523d5f602084013e6107b7565b606091505b50509050806107fb576040517f08c379a00000000000000000000000000000000000000000000000000000000081526004016107f2906136e7565b60405180910390fd5b505050505f60035f6101000a81548160ff02191690831515021790555050565b5f610824612759565b86815f019073ffffffffffffffffffffffffffffffffffffffff16908173ffffffffffffffffffffffffffffffffffffffff16815250508580360381019061086c91906138a9565b816020018190525060018160400190600181111561088d5761088c61327d565b5b908160018111156108a1576108a061327d565b5b81525050438160c00181815250506001548160c001516108c19190613901565b8160e0018181525050600254600154436108db9190613901565b6108e59190613901565b816101000181815250505f816101400190151590811515815250508060045f60075481526020019081526020015f205f820151815f015f6101000a81548173ffffffffffffffffffffffffffffffffffffffff021916908373ffffffffffffffffffffffffffffffffffffffff1602179055506020820151816001015f820151815f015f6101000a81548173ffffffffffffffffffffffffffffffffffffffff021916908373ffffffffffffffffffffffffffffffffffffffff1602179055506020820151816001015f6101000a81548173ffffffffffffffffffffffffffffffffffffffff021916908373ffffffffffffffffffffffffffffffffffffffff16021790555060408201518160010160146101000a81548162ffffff021916908362ffffff16021790555060608201518160010160176101000a81548162ffffff021916908360020b62ffffff1602179055506080820151816002015f6101000a81548173ffffffffffffffffffffffffffffffffffffffff021916908373ffffffffffffffffffffffffffffffffffffffff16021790555050506040820151816004015f6101000a81548160ff02191690836001811115610aaa57610aa961327d565b5b021790555060608201518160040160016101000a81548162ffffff021916908360020b62ffffff16021790555060808201518160040160046101000a81548162ffffff021916908360020b62ffffff16021790555060a08201518160040160076101000a8154816fffffffffffffffffffffffffffffffff0219169083600f0b6fffffffffffffffffffffffffffffffff16021790555060c0820151816005015560e082015181600601556101008201518160070155610120820151816008015f6101000a81548160ff0219169083151502179055506101408201518160080160016101000a81548160ff021916908315150217905550905050845f016020810190610bb69190613934565b60045f60075481526020019081526020015f2060040160016101000a81548162ffffff021916908360020b62ffffff160217905550846020016020810190610bfe9190613934565b60045f60075481526020019081526020015f2060040160046101000a81548162ffffff021916908360020b62ffffff160217905550846040013560045f60075481526020019081526020015f2060040160076101000a8154816fffffffffffffffffffffffffffffffff0219169083600f0b6fffffffffffffffffffffffffffffffff1602179055507f40df8e8b8eb1370ee016fe3b81aba9705c9bc2b59b7edbd7f2853099c8f1e48f600754604051610cb89190612b51565b60405180910390a1600160075f828254610cd29190613901565b925050819055506321d0ee7060e01b91505095945050505050565b5f5f5f9054906101000a900473ffffffffffffffffffffffffffffffffffffffff1673ffffffffffffffffffffffffffffffffffffffff163373ffffffffffffffffffffffffffffffffffffffff1614610d7c576040517f08c379a0000000000000000000000000000000000000000000000000000000008152600401610d73906139a9565b60405180910390fd5b610d84612759565b86815f019073ffffffffffffffffffffffffffffffffffffffff16908173ffffffffffffffffffffffffffffffffffffffff168152505085803603810190610dcc91906138a9565b81602001819052505f81604001906001811115610dec57610deb61327d565b5b90816001811115610e0057610dff61327d565b5b81525050438160c00181815250506001548160c00151610e209190613901565b8160e00181815250505f8161014001901515908115158152505060025460015443610e4b9190613901565b610e559190613901565b816101000181815250508060045f60075481526020019081526020015f205f820151815f015f6101000a81548173ffffffffffffffffffffffffffffffffffffffff021916908373ffffffffffffffffffffffffffffffffffffffff1602179055506020820151816001015f820151815f015f6101000a81548173ffffffffffffffffffffffffffffffffffffffff021916908373ffffffffffffffffffffffffffffffffffffffff1602179055506020820151816001015f6101000a81548173ffffffffffffffffffffffffffffffffffffffff021916908373ffffffffffffffffffffffffffffffffffffffff16021790555060408201518160010160146101000a81548162ffffff021916908362ffffff16021790555060608201518160010160176101000a81548162ffffff021916908360020b62ffffff1602179055506080820151816002015f6101000a81548173ffffffffffffffffffffffffffffffffffffffff021916908373ffffffffffffffffffffffffffffffffffffffff16021790555050506040820151816004015f6101000a81548160ff021916908360018111156110095761100861327d565b5b021790555060608201518160040160016101000a81548162ffffff021916908360020b62ffffff16021790555060808201518160040160046101000a81548162ffffff021916908360020b62ffffff16021790555060a08201518160040160076101000a8154816fffffffffffffffffffffffffffffffff0219169083600f0b6fffffffffffffffffffffffffffffffff16021790555060c0820151816005015560e082015181600601556101008201518160070155610120820151816008015f6101000a81548160ff0219169083151502179055506101408201518160080160016101000a81548160ff021916908315150217905550905050845f0160208101906111159190613934565b60045f60075481526020019081526020015f2060040160016101000a81548162ffffff021916908360020b62ffffff16021790555084602001602081019061115d9190613934565b60045f60075481526020019081526020015f2060040160046101000a81548162ffffff021916908360020b62ffffff160217905550846040013560045f60075481526020019081526020015f2060040160076101000a8154816fffffffffffffffffffffffffffffffff0219169083600f0b6fffffffffffffffffffffffffffffffff1602179055507f40df8e8b8eb1370ee016fe3b81aba9705c9bc2b59b7edbd7f2853099c8f1e48f6007546040516112179190612b51565b60405180910390a1600160075f8282546112319190613901565b9250508190555063259982e560e01b91505095945050505050565b60035f9054906101000a900460ff161561129b576040517f08c379a00000000000000000000000000000000000000000000000000000000081526004016112929061349e565b60405180910390fd5b600160035f6101000a81548160ff02191690831515021790555060065f3373ffffffffffffffffffffffffffffffffffffffff1673ffffffffffffffffffffffffffffffffffffffff1681526020019081526020015f205490505f8111611300575f5ffd5b5f60065f3373ffffffffffffffffffffffffffffffffffffffff1673ffffffffffffffffffffffffffffffffffffffff1681526020019081526020015f20819055505f3373ffffffffffffffffffffffffffffffffffffffff168260405161136790613689565b5f6040518083038185875af1925050503d805f81146113a1576040519150601f19603f3d011682016040523d82523d5f602084013e6113a6565b606091505b50509050806113ea576040517f08c379a00000000000000000000000000000000000000000000000000000000081526004016113e190613a11565b60405180910390fd5b505f60035f6101000a81548160ff02191690831515021790555050565b60015481565b806007548110611452576040517f08c379a000000000000000000000000000000000000000000000000000000000815260040161144990613506565b60405180910390fd5b60045f8381526020019081526020015f205f015f9054906101000a900473ffffffffffffffffffffffffffffffffffffffff1673ffffffffffffffffffffffffffffffffffffffff163373ffffffffffffffffffffffffffffffffffffffff16146114bb575f5ffd5b823410156114c7575f5ffd5b8260055f8481526020019081526020015f2081905550505050565b5f5f5f63575e24b460e01b5f5f925092509250955095509592505050565b5f5f5f5f9054906101000a900473ffffffffffffffffffffffffffffffffffffffff1673ffffffffffffffffffffffffffffffffffffffff163373ffffffffffffffffffffffffffffffffffffffff1614611559575f5ffd5b5f5f5f868681019061156b9190613a6a565b9250925092505f60045f8381526020019081526020015f2090506007548210611592575f5ffd5b8060080160019054906101000a900460ff16156115ad575f5ffd5b5f60055f8481526020019081526020015f205490505f60055f8581526020019081526020015f20819055508060065f8773ffffffffffffffffffffffffffffffffffffffff1673ffffffffffffffffffffffffffffffffffffffff1681526020019081526020015f205f8282546116249190613901565b9250508190555060018260080160016101000a81548160ff0219169083151502179055505f8d5f01602081019061165b9190613aba565b90505f8e60200160208101906116719190613aba565b90505f61167d8e612741565b600f0b90505f61168c8f61274d565b600f0b90505f821215611729575f5f9054906101000a900473ffffffffffffffffffffffffffffffffffffffff1673ffffffffffffffffffffffffffffffffffffffff166311da60b46040518163ffffffff1660e01b81526004016020604051808303815f875af1158015611703573d5f5f3e3d5ffd5b505050506040513d601f19601f820116820180604052508101906117279190613af9565b505b5f8213156117bc575f5f9054906101000a900473ffffffffffffffffffffffffffffffffffffffff1673ffffffffffffffffffffffffffffffffffffffff16630b0d9c09858a856040518463ffffffff1660e01b815260040161178e93929190613b33565b5f604051808303815f87803b1580156117a5575f5ffd5b505af11580156117b7573d5f5f3e3d5ffd5b505050505b5f811215611854575f5f9054906101000a900473ffffffffffffffffffffffffffffffffffffffff1673ffffffffffffffffffffffffffffffffffffffff166311da60b46040518163ffffffff1660e01b81526004016020604051808303815f875af115801561182e573d5f5f3e3d5ffd5b505050506040513d601f19601f820116820180604052508101906118529190613af9565b505b5f8113156118e7575f5f9054906101000a900473ffffffffffffffffffffffffffffffffffffffff1673ffffffffffffffffffffffffffffffffffffffff16630b0d9c09848a846040518463ffffffff1660e01b81526004016118b993929190613b33565b5f604051808303815f87803b1580156118d0575f5ffd5b505af11580156118e2573d5f5f3e3d5ffd5b505050505b7f062c87ebb604bf96add589b29ac085ee8b599bad0c3eb57d25603ebf8e25aad2876040516119169190612b51565b60405180910390a1636c2bbe7e60e01b8f9a509a5050505050505050505097509795505050505050565b5f636fe7e6eb60e01b9050949350505050565b5f5f5f5f9054906101000a900473ffffffffffffffffffffffffffffffffffffffff1673ffffffffffffffffffffffffffffffffffffffff163373ffffffffffffffffffffffffffffffffffffffff16146119ac575f5ffd5b5f5f5f86868101906119be9190613a6a565b9250925092505f60045f8381526020019081526020015f2090508060080160019054906101000a900460ff16156119f3575f5ffd5b6007548210611a00575f5ffd5b5f60055f8481526020019081526020015f205490505f60055f8581526020019081526020015f20819055508060065f8773ffffffffffffffffffffffffffffffffffffffff1673ffffffffffffffffffffffffffffffffffffffff1681526020019081526020015f205f828254611a779190613901565b9250508190555060018260080160016101000a81548160ff0219169083151502179055505f8d5f016020810190611aae9190613aba565b90505f8e6020016020810190611ac49190613aba565b90505f611ad08e612741565b600f0b90505f611adf8f61274d565b600f0b90505f821215611b7c575f5f9054906101000a900473ffffffffffffffffffffffffffffffffffffffff1673ffffffffffffffffffffffffffffffffffffffff166311da60b46040518163ffffffff1660e01b81526004016020604051808303815f875af1158015611b56573d5f5f3e3d5ffd5b505050506040513d601f19601f82011682018060405250810190611b7a9190613af9565b505b5f821315611c0f575f5f9054906101000a900473ffffffffffffffffffffffffffffffffffffffff1673ffffffffffffffffffffffffffffffffffffffff16630b0d9c09858a856040518463ffffffff1660e01b8152600401611be193929190613b33565b5f604051808303815f87803b158015611bf8575f5ffd5b505af1158015611c0a573d5f5f3e3d5ffd5b505050505b5f811215611ca7575f5f9054906101000a900473ffffffffffffffffffffffffffffffffffffffff1673ffffffffffffffffffffffffffffffffffffffff166311da60b46040518163ffffffff1660e01b81526004016020604051808303815f875af1158015611c81573d5f5f3e3d5ffd5b505050506040513d601f19601f82011682018060405250810190611ca59190613af9565b505b5f811315611d3a575f5f9054906101000a900473ffffffffffffffffffffffffffffffffffffffff1673ffffffffffffffffffffffffffffffffffffffff16630b0d9c09848a846040518463ffffffff1660e01b8152600401611d0c93929190613b33565b5f604051808303815f87803b158015611d23575f5ffd5b505af1158015611d35573d5f5f3e3d5ffd5b505050505b7f062c87ebb604bf96add589b29ac085ee8b599bad0c3eb57d25603ebf8e25aad287604051611d699190612b51565b60405180910390a1639f063efc60e01b8f9a509a5050505050505050505097509795505050505050565b60025481565b60035f9054906101000a900460ff1615611de8576040517f08c379a0000000000000000000000000000000000000000000000000000000008152600401611ddf9061349e565b60405180910390fd5b600160035f6101000a81548160ff021916908315150217905550806007548110611e47576040517f08c379a0000000000000000000000000000000000000000000000000000000008152600401611e3e90613506565b60405180910390fd5b5f60045f8481526020019081526020015f209050805f015f9054906101000a900473ffffffffffffffffffffffffffffffffffffffff1673ffffffffffffffffffffffffffffffffffffffff163373ffffffffffffffffffffffffffffffffffffffff1614611eb4575f5ffd5b8060080160019054906101000a900460ff1615611ecf575f5ffd5b806008015f9054906101000a900460ff1615611ee9575f5ffd5b5f60055f8581526020019081526020015f205490506001826008015f6101000a81548160ff0219169083151502179055505f60055f8681526020019081526020015f20819055505f811115612004575f825f015f9054906101000a900473ffffffffffffffffffffffffffffffffffffffff1673ffffffffffffffffffffffffffffffffffffffff1682604051611f7f90613689565b5f6040518083038185875af1925050503d805f8114611fb9576040519150601f19603f3d011682016040523d82523d5f602084013e611fbe565b606091505b5050905080612002576040517f08c379a0000000000000000000000000000000000000000000000000000000008152600401611ff9906136e7565b60405180910390fd5b505b5050505f60035f6101000a81548160ff02191690831515021790555050565b5f5f63b47b2fb160e01b5f91509150965096945050505050565b5f63b6a8b0fa60e01b90509695505050505050565b61205a6127e4565b604051806101c001604052805f151581526020015f151581526020016001151581526020016001151581526020016001151581526020016001151581526020015f151581526020015f151581526020015f151581526020015f151581526020015f151581526020015f151581526020015f151581526020015f1515815250905090565b806007548110612122576040517f08c379a000000000000000000000000000000000000000000000000000000000815260040161211990613506565b60405180910390fd5b60045f8381526020019081526020015f206008015f9054906101000a900460ff161561214c575f5ffd5b5f60055f8481526020019081526020015f20541161219f576040517f08c379a000000000000000000000000000000000000000000000000000000000815260040161219690613bb2565b60405180910390fd5b60045f8381526020019081526020015f205f015f9054906101000a900473ffffffffffffffffffffffffffffffffffffffff1673ffffffffffffffffffffffffffffffffffffffff163373ffffffffffffffffffffffffffffffffffffffff1603612208575f5ffd5b6001151560045f8481526020019081526020015f2060080160019054906101000a900460ff16151503612239575f5ffd5b5f43905060045f8481526020019081526020015f206006015481101561225d575f5ffd5b60045f8481526020019081526020015f206007015481111561227d575f5ffd5b612285612861565b5f60045f8681526020019081526020015f2060040160019054906101000a900460020b90505f60045f8781526020019081526020015f2060040160049054906101000a900460020b90505f60045f8881526020019081526020015f2060040160079054906101000a9004600f0b905082845f019060020b908160020b8152505081846020019060020b908160020b8152505080600f0b8460400181815250505f60018111156123375761233661327d565b5b60045f8981526020019081526020015f206004015f9054906101000a900460ff16600181111561236a5761236961327d565b5b0361237e575f81600f0b1361237d575f5ffd5b5b6001808111156123915761239061327d565b5b60045f8981526020019081526020015f206004015f9054906101000a900460ff1660018111156123c4576123c361327d565b5b036123d8575f81600f0b126123d7575f5ffd5b5b60603360045f8a81526020019081526020015f205f015f9054906101000a900473ffffffffffffffffffffffffffffffffffffffff168960405160200161242193929190613bd0565b60405160208183030381529060405290505f5f9054906101000a900473ffffffffffffffffffffffffffffffffffffffff1673ffffffffffffffffffffffffffffffffffffffff16635a6bcfda60045f8b81526020019081526020015f2060010187846040518463ffffffff1660e01b81526004016124a293929190613e4f565b60408051808303815f875af11580156124bd573d5f5f3e3d5ffd5b505050506040513d601f19601f820116820180604052508101906124e19190613ea1565b50505050505050505050565b6004602052805f5260405f205f91509050805f015f9054906101000a900473ffffffffffffffffffffffffffffffffffffffff1690806001016040518060a00160405290815f82015f9054906101000a900473ffffffffffffffffffffffffffffffffffffffff1673ffffffffffffffffffffffffffffffffffffffff1673ffffffffffffffffffffffffffffffffffffffff168152602001600182015f9054906101000a900473ffffffffffffffffffffffffffffffffffffffff1673ffffffffffffffffffffffffffffffffffffffff1673ffffffffffffffffffffffffffffffffffffffff1681526020016001820160149054906101000a900462ffffff1662ffffff1662ffffff1681526020016001820160179054906101000a900460020b60020b60020b8152602001600282015f9054906101000a900473ffffffffffffffffffffffffffffffffffffffff1673ffffffffffffffffffffffffffffffffffffffff1673ffffffffffffffffffffffffffffffffffffffff168152505090806004015f9054906101000a900460ff16908060040160019054906101000a900460020b908060040160049054906101000a900460020b908060040160079054906101000a9004600f0b90806005015490806006015490806007015490806008015f9054906101000a900460ff16908060080160019054906101000a900460ff1690508b565b5f5f9054906101000a900473ffffffffffffffffffffffffffffffffffffffff1681565b5f63dc98354e60e01b90509392505050565b5f63e1b4af6960e01b90509695505050505050565b5f8160801d9050919050565b5f81600f0b9050919050565b6040518061016001604052805f73ffffffffffffffffffffffffffffffffffffffff16815260200161278961288b565b81526020015f60018111156127a1576127a061327d565b5b81526020015f60020b81526020015f60020b81526020015f600f0b81526020015f81526020015f81526020015f81526020015f151581526020015f151581525090565b604051806101c001604052805f151581526020015f151581526020015f151581526020015f151581526020015f151581526020015f151581526020015f151581526020015f151581526020015f151581526020015f151581526020015f151581526020015f151581526020015f151581526020015f151581525090565b60405180608001604052805f60020b81526020015f60020b81526020015f81526020015f81525090565b6040518060a001604052805f73ffffffffffffffffffffffffffffffffffffffff1681526020015f73ffffffffffffffffffffffffffffffffffffffff1681526020015f62ffffff1681526020015f60020b81526020015f73ffffffffffffffffffffffffffffffffffffffff1681525090565b5f604051905090565b5f5ffd5b5f5ffd5b5f819050919050565b61292281612910565b811461292c575f5ffd5b50565b5f8135905061293d81612919565b92915050565b5f6020828403121561295857612957612908565b5b5f6129658482850161292f565b91505092915050565b5f73ffffffffffffffffffffffffffffffffffffffff82169050919050565b5f6129978261296e565b9050919050565b6129a78161298d565b81146129b1575f5ffd5b50565b5f813590506129c28161299e565b92915050565b5f5ffd5b5f60a082840312156129e1576129e06129c8565b5b81905092915050565b5f608082840312156129ff576129fe6129c8565b5b81905092915050565b5f5ffd5b5f5ffd5b5f5ffd5b5f5f83601f840112612a2957612a28612a08565b5b8235905067ffffffffffffffff811115612a4657612a45612a0c565b5b602083019150836001820283011115612a6257612a61612a10565b5b9250929050565b5f5f5f5f5f6101608688031215612a8357612a82612908565b5b5f612a90888289016129b4565b9550506020612aa1888289016129cc565b94505060c0612ab2888289016129ea565b93505061014086013567ffffffffffffffff811115612ad457612ad361290c565b5b612ae088828901612a14565b92509250509295509295909350565b5f7fffffffff0000000000000000000000000000000000000000000000000000000082169050919050565b612b2381612aef565b82525050565b5f602082019050612b3c5f830184612b1a565b92915050565b612b4b81612910565b82525050565b5f602082019050612b645f830184612b42565b92915050565b5f5f60408385031215612b8057612b7f612908565b5b5f612b8d8582860161292f565b9250506020612b9e8582860161292f565b9150509250929050565b5f60608284031215612bbd57612bbc6129c8565b5b81905092915050565b5f5f5f5f5f6101408688031215612be057612bdf612908565b5b5f612bed888289016129b4565b9550506020612bfe888289016129cc565b94505060c0612c0f88828901612ba8565b93505061012086013567ffffffffffffffff811115612c3157612c3061290c565b5b612c3d88828901612a14565b92509250509295509295909350565b5f819050919050565b5f819050919050565b5f612c78612c73612c6e84612c4c565b612c55565b612c4c565b9050919050565b612c8881612c5e565b82525050565b5f62ffffff82169050919050565b612ca581612c8e565b82525050565b5f606082019050612cbe5f830186612b1a565b612ccb6020830185612c7f565b612cd86040830184612c9c565b949350505050565b612ce981612c4c565b8114612cf3575f5ffd5b50565b5f81359050612d0481612ce0565b92915050565b5f5f5f5f5f5f5f6101a0888a031215612d2657612d25612908565b5b5f612d338a828b016129b4565b9750506020612d448a828b016129cc565b96505060c0612d558a828b016129ea565b955050610140612d678a828b01612cf6565b945050610160612d798a828b01612cf6565b93505061018088013567ffffffffffffffff811115612d9b57612d9a61290c565b5b612da78a828b01612a14565b925092505092959891949750929550565b612dc181612c5e565b82525050565b5f604082019050612dda5f830185612b1a565b612de76020830184612db8565b9392505050565b612df78161296e565b8114612e01575f5ffd5b50565b5f81359050612e1281612dee565b92915050565b5f8160020b9050919050565b612e2d81612e18565b8114612e37575f5ffd5b50565b5f81359050612e4881612e24565b92915050565b5f5f5f5f6101008587031215612e6757612e66612908565b5b5f612e74878288016129b4565b9450506020612e85878288016129cc565b93505060c0612e9687828801612e04565b92505060e0612ea787828801612e3a565b91505092959194509250565b5f5f5f5f5f5f6101608789031215612ece57612ecd612908565b5b5f612edb89828a016129b4565b9650506020612eec89828a016129cc565b95505060c0612efd89828a01612ba8565b945050610120612f0f89828a01612cf6565b93505061014087013567ffffffffffffffff811115612f3157612f3061290c565b5b612f3d89828a01612a14565b92509250509295509295509295565b5f81600f0b9050919050565b612f6181612f4c565b82525050565b5f604082019050612f7a5f830185612b1a565b612f876020830184612f58565b9392505050565b5f5f5f5f5f5f6101208789031215612fa957612fa8612908565b5b5f612fb689828a016129b4565b9650506020612fc789828a016129cc565b95505060c0612fd889828a0161292f565b94505060e0612fe989828a0161292f565b93505061010087013567ffffffffffffffff81111561300b5761300a61290c565b5b61301789828a01612a14565b92509250509295509295509295565b5f8115159050919050565b61303a81613026565b82525050565b6101c082015f8201516130555f850182613031565b5060208201516130686020850182613031565b50604082015161307b6040850182613031565b50606082015161308e6060850182613031565b5060808201516130a16080850182613031565b5060a08201516130b460a0850182613031565b5060c08201516130c760c0850182613031565b5060e08201516130da60e0850182613031565b506101008201516130ef610100850182613031565b50610120820151613104610120850182613031565b50610140820151613119610140850182613031565b5061016082015161312e610160850182613031565b50610180820151613143610180850182613031565b506101a08201516131586101a0850182613031565b50505050565b5f6101c0820190506131725f830184613040565b92915050565b6131818161298d565b82525050565b5f6131a161319c6131978461296e565b612c55565b61296e565b9050919050565b5f6131b282613187565b9050919050565b5f6131c3826131a8565b9050919050565b6131d3816131b9565b82525050565b6131e281612c8e565b82525050565b6131f181612e18565b82525050565b5f613201826131a8565b9050919050565b613211816131f7565b82525050565b60a082015f82015161322b5f8501826131ca565b50602082015161323e60208501826131ca565b50604082015161325160408501826131d9565b50606082015161326460608501826131e8565b5060808201516132776080850182613208565b50505050565b7f4e487b71000000000000000000000000000000000000000000000000000000005f52602160045260245ffd5b600281106132bb576132ba61327d565b5b50565b5f8190506132cb826132aa565b919050565b5f6132da826132be565b9050919050565b6132ea816132d0565b82525050565b6132f981612e18565b82525050565b61330881613026565b82525050565b5f6101e0820190506133225f83018e613178565b61332f602083018d613217565b61333c60c083018c6132e1565b61334960e083018b6132f0565b61335761010083018a6132f0565b613365610120830189612f58565b613373610140830188612b42565b613381610160830187612b42565b61338f610180830186612b42565b61339d6101a08301856132ff565b6133ab6101c08301846132ff565b9c9b505050505050505050505050565b5f6133c5826131a8565b9050919050565b6133d5816133bb565b82525050565b5f6020820190506133ee5f8301846133cc565b92915050565b5f5f5f60e0848603121561340b5761340a612908565b5b5f613418868287016129b4565b9350506020613429868287016129cc565b92505060c061343a86828701612e04565b9150509250925092565b5f82825260208201905092915050565b7f5265656e7472616e637920626c6f636b656400000000000000000000000000005f82015250565b5f613488601283613444565b915061349382613454565b602082019050919050565b5f6020820190508181035f8301526134b58161347c565b9050919050565b7f496e76616c696420696e74656e740000000000000000000000000000000000005f82015250565b5f6134f0600e83613444565b91506134fb826134bc565b602082019050919050565b5f6020820190508181035f83015261351d816134e4565b9050919050565b7f4e6f7420657870697265642079657400000000000000000000000000000000005f82015250565b5f613558600f83613444565b915061356382613524565b602082019050919050565b5f6020820190508181035f8301526135858161354c565b9050919050565b7f416c7265616479206578656375746564000000000000000000000000000000005f82015250565b5f6135c0601083613444565b91506135cb8261358c565b602082019050919050565b5f6020820190508181035f8301526135ed816135b4565b9050919050565b7f416c72656164792063616e63656c6c65640000000000000000000000000000005f82015250565b5f613628601183613444565b9150613633826135f4565b602082019050919050565b5f6020820190508181035f8301526136558161361c565b9050919050565b5f81905092915050565b50565b5f6136745f8361365c565b915061367f82613666565b5f82019050919050565b5f61369382613669565b9150819050919050565b7f526566756e64206661696c6564000000000000000000000000000000000000005f82015250565b5f6136d1600d83613444565b91506136dc8261369d565b602082019050919050565b5f6020820190508181035f8301526136fe816136c5565b9050919050565b5f5ffd5b5f601f19601f8301169050919050565b7f4e487b71000000000000000000000000000000000000000000000000000000005f52604160045260245ffd5b61374f82613709565b810181811067ffffffffffffffff8211171561376e5761376d613719565b5b80604052505050565b5f6137806128ff565b905061378c8282613746565b919050565b61379a8161298d565b81146137a4575f5ffd5b50565b5f813590506137b581613791565b92915050565b6137c481612c8e565b81146137ce575f5ffd5b50565b5f813590506137df816137bb565b92915050565b5f6137ef8261298d565b9050919050565b6137ff816137e5565b8114613809575f5ffd5b50565b5f8135905061381a816137f6565b92915050565b5f60a0828403121561383557613834613705565b5b61383f60a0613777565b90505f61384e848285016137a7565b5f830152506020613861848285016137a7565b6020830152506040613875848285016137d1565b604083015250606061388984828501612e3a565b606083015250608061389d8482850161380c565b60808301525092915050565b5f60a082840312156138be576138bd612908565b5b5f6138cb84828501613820565b91505092915050565b7f4e487b71000000000000000000000000000000000000000000000000000000005f52601160045260245ffd5b5f61390b82612910565b915061391683612910565b925082820190508082111561392e5761392d6138d4565b5b92915050565b5f6020828403121561394957613948612908565b5b5f61395684828501612e3a565b91505092915050565b7f596f752063616e27742070726f636565640000000000000000000000000000005f82015250565b5f613993601183613444565b915061399e8261395f565b602082019050919050565b5f6020820190508181035f8301526139c081613987565b9050919050565b7f455448207472616e73666572206661696c6564000000000000000000000000005f82015250565b5f6139fb601383613444565b9150613a06826139c7565b602082019050919050565b5f6020820190508181035f830152613a28816139ef565b9050919050565b5f613a398261296e565b9050919050565b613a4981613a2f565b8114613a53575f5ffd5b50565b5f81359050613a6481613a40565b92915050565b5f5f5f60608486031215613a8157613a80612908565b5b5f613a8e86828701613a56565b9350506020613a9f86828701613a56565b9250506040613ab08682870161292f565b9150509250925092565b5f60208284031215613acf57613ace612908565b5b5f613adc848285016137a7565b91505092915050565b5f81519050613af381612919565b92915050565b5f60208284031215613b0e57613b0d612908565b5b5f613b1b84828501613ae5565b91505092915050565b613b2d816131b9565b82525050565b5f606082019050613b465f830186613b24565b613b536020830185613178565b613b606040830184612b42565b949350505050565b7f4e6f2066656500000000000000000000000000000000000000000000000000005f82015250565b5f613b9c600683613444565b9150613ba782613b68565b602082019050919050565b5f6020820190508181035f830152613bc981613b90565b9050919050565b5f606082019050613be35f830186613178565b613bf06020830185613178565b613bfd6040830184612b42565b949350505050565b5f815f1c9050919050565b5f73ffffffffffffffffffffffffffffffffffffffff82169050919050565b5f613c41613c3c83613c05565b613c10565b9050919050565b5f8160a01c9050919050565b5f62ffffff82169050919050565b5f613c74613c6f83613c48565b613c54565b9050919050565b5f8160b81c9050919050565b5f8160020b9050919050565b5f613ca5613ca083613c7b565b613c87565b9050919050565b5f73ffffffffffffffffffffffffffffffffffffffff82169050919050565b5f613cdd613cd883613c05565b613cac565b9050919050565b60a082015f5f8301549050613cf881613c2f565b613d045f8601826131ca565b5060018301549050613d1581613c2f565b613d2260208601826131ca565b50613d2c81613c62565b613d3960408601826131d9565b50613d4381613c93565b613d5060608601826131e8565b5060028301549050613d6181613ccb565b613d6e6080860182613208565b5050505050565b613d7e81612c4c565b82525050565b5f819050919050565b613d9681613d84565b82525050565b608082015f820151613db05f8501826131e8565b506020820151613dc360208501826131e8565b506040820151613dd66040850182613d75565b506060820151613de96060850182613d8d565b50505050565b5f81519050919050565b5f82825260208201905092915050565b8281835e5f83830152505050565b5f613e2182613def565b613e2b8185613df9565b9350613e3b818560208601613e09565b613e4481613709565b840191505092915050565b5f61014082019050613e635f830186613ce4565b613e7060a0830185613d9c565b818103610120830152613e838184613e17565b9050949350505050565b5f81519050613e9b81612ce0565b92915050565b5f5f60408385031215613eb757613eb6612908565b5b5f613ec485828601613e8d565b9250506020613ed585828601613e8d565b915050925092905056fea2646970667358221220c8240e2cb6d1cb9b899c2f784a53d7e32d7cfaf5a698626c65485bcb1d36c70064736f6c634300081e0033","linkReferences":{}},"methodIdentifiers":{"afterAddLiquidity(address,(address,address,uint24,int24,address),(int24,int24,int256,bytes32),int256,int256,bytes)":"9f063efc","afterDonate(address,(address,address,uint24,int24,address),uint256,uint256,bytes)":"e1b4af69","afterInitialize(address,(address,address,uint24,int24,address),uint160,int24)":"6fe7e6eb","afterRemoveLiquidity(address,(address,address,uint24,int24,address),(int24,int24,int256,bytes32),int256,int256,bytes)":"6c2bbe7e","afterSwap(address,(address,address,uint24,int24,address),(bool,int256,uint160),int256,bytes)":"b47b2fb1","beforeAddLiquidity(address,(address,address,uint24,int24,address),(int24,int24,int256,bytes32),bytes)":"259982e5","beforeDonate(address,(address,address,uint24,int24,address),uint256,uint256,bytes)":"b6a8b0fa","beforeInitialize(address,(address,address,uint24,int24,address),uint160)":"dc98354e","beforeRemoveLiquidity(address,(address,address,uint24,int24,address),(int24,int24,int256,bytes32),bytes)":"21d0ee70","beforeSwap(address,(address,address,uint24,int24,address),(bool,int256,uint160),bytes)":"575e24b4","cancelIntent(uint256)":"a0a31aac","delay_block()":"44bb65b8","executeIntent(uint256)":"cd9d6aee","getHookPermissions()":"c4e833ce","gracePeriod()":"a06db7dc","intent(uint256)":"cf518ad9","poolManager()":"dc4c90d3","queueIntentFee(uint256,uint256)":"4da0a78c","refundAfterExpiry(uint256)":"05311719","withdraw(uint256)":"2e1a7d4d"},"id":33}